{
  "contractName": "SolTweet",
  "abi": [
    {
      "constant": true,
      "inputs": [
        {
          "name": "",
          "type": "uint256"
        }
      ],
      "name": "users",
      "outputs": [
        {
          "name": "username",
          "type": "string"
        },
        {
          "name": "followerCount",
          "type": "uint256"
        }
      ],
      "payable": false,
      "stateMutability": "view",
      "type": "function"
    },
    {
      "constant": true,
      "inputs": [
        {
          "name": "",
          "type": "uint256"
        },
        {
          "name": "",
          "type": "uint256"
        }
      ],
      "name": "followingMapping",
      "outputs": [
        {
          "name": "",
          "type": "bool"
        }
      ],
      "payable": false,
      "stateMutability": "view",
      "type": "function"
    },
    {
      "constant": true,
      "inputs": [
        {
          "name": "",
          "type": "address"
        }
      ],
      "name": "ownerHasAccount",
      "outputs": [
        {
          "name": "",
          "type": "bool"
        }
      ],
      "payable": false,
      "stateMutability": "view",
      "type": "function"
    },
    {
      "constant": true,
      "inputs": [
        {
          "name": "",
          "type": "address"
        }
      ],
      "name": "ownerToUser",
      "outputs": [
        {
          "name": "",
          "type": "uint256"
        }
      ],
      "payable": false,
      "stateMutability": "view",
      "type": "function"
    },
    {
      "constant": true,
      "inputs": [
        {
          "name": "",
          "type": "uint256"
        },
        {
          "name": "",
          "type": "uint256"
        }
      ],
      "name": "followingMappingKeys",
      "outputs": [
        {
          "name": "",
          "type": "uint256"
        }
      ],
      "payable": false,
      "stateMutability": "view",
      "type": "function"
    },
    {
      "constant": true,
      "inputs": [
        {
          "name": "",
          "type": "uint256"
        }
      ],
      "name": "tweets",
      "outputs": [
        {
          "name": "text",
          "type": "string"
        },
        {
          "name": "likes",
          "type": "uint256"
        },
        {
          "name": "authorId",
          "type": "uint256"
        }
      ],
      "payable": false,
      "stateMutability": "view",
      "type": "function"
    },
    {
      "anonymous": false,
      "inputs": [
        {
          "indexed": false,
          "name": "userId",
          "type": "uint256"
        }
      ],
      "name": "NewUser",
      "type": "event"
    },
    {
      "anonymous": false,
      "inputs": [
        {
          "indexed": false,
          "name": "tweetId",
          "type": "uint256"
        },
        {
          "indexed": true,
          "name": "userId",
          "type": "uint256"
        }
      ],
      "name": "NewTweet",
      "type": "event"
    },
    {
      "anonymous": false,
      "inputs": [
        {
          "indexed": false,
          "name": "tweetId",
          "type": "uint256"
        }
      ],
      "name": "LikeCountChange",
      "type": "event"
    },
    {
      "constant": true,
      "inputs": [
        {
          "name": "_userId",
          "type": "uint256"
        }
      ],
      "name": "_getFollowingMappingKeys",
      "outputs": [
        {
          "name": "",
          "type": "uint256[]"
        }
      ],
      "payable": false,
      "stateMutability": "view",
      "type": "function"
    },
    {
      "constant": true,
      "inputs": [],
      "name": "_getNumberOfTweets",
      "outputs": [
        {
          "name": "",
          "type": "uint256"
        }
      ],
      "payable": false,
      "stateMutability": "view",
      "type": "function"
    },
    {
      "constant": false,
      "inputs": [
        {
          "name": "_username",
          "type": "string"
        }
      ],
      "name": "_createUser",
      "outputs": [
        {
          "name": "",
          "type": "uint256"
        }
      ],
      "payable": false,
      "stateMutability": "nonpayable",
      "type": "function"
    },
    {
      "constant": false,
      "inputs": [
        {
          "name": "_userId",
          "type": "uint256"
        },
        {
          "name": "_tweetText",
          "type": "string"
        }
      ],
      "name": "_createTweet",
      "outputs": [
        {
          "name": "",
          "type": "uint256"
        }
      ],
      "payable": false,
      "stateMutability": "nonpayable",
      "type": "function"
    },
    {
      "constant": false,
      "inputs": [
        {
          "name": "_userId",
          "type": "uint256"
        },
        {
          "name": "_tweetId",
          "type": "uint256"
        }
      ],
      "name": "_likeTweet",
      "outputs": [],
      "payable": false,
      "stateMutability": "nonpayable",
      "type": "function"
    },
    {
      "constant": false,
      "inputs": [
        {
          "name": "_userId",
          "type": "uint256"
        },
        {
          "name": "_userIdToFollow",
          "type": "uint256"
        }
      ],
      "name": "_follow",
      "outputs": [],
      "payable": false,
      "stateMutability": "nonpayable",
      "type": "function"
    },
    {
      "constant": false,
      "inputs": [
        {
          "name": "_userId",
          "type": "uint256"
        },
        {
          "name": "_userIdToUnFollow",
          "type": "uint256"
        }
      ],
      "name": "_unFollow",
      "outputs": [],
      "payable": false,
      "stateMutability": "nonpayable",
      "type": "function"
    }
  ],
  "bytecode": "0x608060405234801561001057600080fd5b50611403806100206000396000f3006080604052600436106100c5576000357c0100000000000000000000000000000000000000000000000000000000900463ffffffff168063185d0ec4146100ca578063365b98b2146101515780633e940afe146101fe578063614b371b1461022957806365be663f146102605780638543560b146102af57806399fabed61461030a5780639f57faa114610361578063a93769a0146103de578063cac1381d14610429578063cd42bf6014610460578063e8d857b0146104e2578063f7d69a3e14610596575b600080fd5b3480156100d657600080fd5b5061013b60048036038101908080359060200190929190803590602001908201803590602001908080601f01602080910402602001604051908101604052809392919081815260200183838082843782019150505050505091929192905050506105cd565b6040518082815260200191505060405180910390f35b34801561015d57600080fd5b5061017c60048036038101908080359060200190929190505050610791565b6040518080602001838152602001828103825284818151815260200191508051906020019080838360005b838110156101c25780820151818401526020810190506101a7565b50505050905090810190601f1680156101ef5780820380516001836020036101000a031916815260200191505b50935050505060405180910390f35b34801561020a57600080fd5b5061021361085c565b6040518082815260200191505060405180910390f35b34801561023557600080fd5b5061025e6004803603810190808035906020019092919080359060200190929190505050610869565b005b34801561026c57600080fd5b506102956004803603810190808035906020019092919080359060200190929190505050610ae3565b604051808215151515815260200191505060405180910390f35b3480156102bb57600080fd5b506102f0600480360381019080803573ffffffffffffffffffffffffffffffffffffffff169060200190929190505050610b12565b604051808215151515815260200191505060405180910390f35b34801561031657600080fd5b5061034b600480360381019080803573ffffffffffffffffffffffffffffffffffffffff169060200190929190505050610b32565b6040518082815260200191505060405180910390f35b34801561036d57600080fd5b506103c8600480360381019080803590602001908201803590602001908080601f0160208091040260200160405190810160405280939291908181526020018383808284378201915050505050509192919290505050610b4a565b6040518082815260200191505060405180910390f35b3480156103ea57600080fd5b506104136004803603810190808035906020019092919080359060200190929190505050610d04565b6040518082815260200191505060405180910390f35b34801561043557600080fd5b5061045e6004803603810190808035906020019092919080359060200190929190505050610d34565b005b34801561046c57600080fd5b5061048b60048036038101908080359060200190929190505050610e8c565b6040518080602001828103825283818151815260200191508051906020019060200280838360005b838110156104ce5780820151818401526020810190506104b3565b505050509050019250505060405180910390f35b3480156104ee57600080fd5b5061050d60048036038101908080359060200190929190505050610ef7565b6040518080602001848152602001838152602001828103825285818151815260200191508051906020019080838360005b8381101561055957808201518184015260208101905061053e565b50505050905090810190601f1680156105865780820380516001836020036101000a031916815260200191505b5094505050505060405180910390f35b3480156105a257600080fd5b506105cb6004803603810190808035906020019092919080359060200190929190505050610fc8565b005b6000803373ffffffffffffffffffffffffffffffffffffffff1660008086815260200190815260200160002060009054906101000a900473ffffffffffffffffffffffffffffffffffffffff1673ffffffffffffffffffffffffffffffffffffffff161415156106a5576040517f08c379a00000000000000000000000000000000000000000000000000000000081526004018080602001828103825260138152602001807f756e617574686f72697a65642073656e6465720000000000000000000000000081525060200191505060405180910390fd5b610735600160086060604051908101604052808781526020016000815260200188815250908060018154018082558091505090600182039060005260206000209060030201600090919290919091506000820151816000019080519060200190610710929190611318565b506020820151816001015560408201518160020155505061120490919063ffffffff16565b9050836003600083815260200190815260200160002081905550837f1127c70e027a528578ca2cbb910e4c85e11d3c755fb4cc0a5faeb1b65e03348a826040518082815260200191505060405180910390a28091505092915050565b6007818154811015156107a057fe5b9060005260206000209060020201600091509050806000018054600181600116156101000203166002900480601f01602080910402602001604051908101604052809291908181526020018280546001816001161561010002031660029004801561084c5780601f106108215761010080835404028352916020019161084c565b820191906000526020600020905b81548152906001019060200180831161082f57829003601f168201915b5050505050908060010154905082565b6000600880549050905090565b6000803373ffffffffffffffffffffffffffffffffffffffff1660008086815260200190815260200160002060009054906101000a900473ffffffffffffffffffffffffffffffffffffffff1673ffffffffffffffffffffffffffffffffffffffff16141515610941576040517f08c379a00000000000000000000000000000000000000000000000000000000081526004018080602001828103825260138152602001807f756e617574686f72697a65642073656e6465720000000000000000000000000081525060200191505060405180910390fd5b60046000858560405160200180838152602001828152602001925050506040516020818303038152906040526040518082805190602001908083835b6020831015156109a2578051825260208201915060208101905060208303925061097d565b6001836020036101000a038019825116818451168082178552505050505050905001915050604051809103902060019004815260200190815260200160002060009054906101000a900460ff16915081151515610a67576040517f08c379a00000000000000000000000000000000000000000000000000000000081526004018080602001828103825260188152602001807f7573657220616c7265616479206c696b6564207477656574000000000000000081525060200191505060405180910390fd5b600883815481101515610a7657fe5b90600052602060002090600302019050610a9e6001826001015461128e90919063ffffffff16565b81600101819055507f5bb5565210b0cd5c0a21cdd66b4d5daeabca49c9dc91ec544e2fd8a33a2c839e836040518082815260200191505060405180910390a150505050565b60056020528160005260406000206020528060005260406000206000915091509054906101000a900460ff1681565b60026020528060005260406000206000915054906101000a900460ff1681565b60016020528060005260406000206000915090505481565b6000610b54611398565b60008382600001819052506000826020018181525050610bd46001600784908060018154018082558091505090600182039060005260206000209060020201600090919290919091506000820151816000019080519060200190610bb9929190611318565b5060208201518160010155505061120490919063ffffffff16565b90503360008083815260200190815260200160002060006101000a81548173ffffffffffffffffffffffffffffffffffffffff021916908373ffffffffffffffffffffffffffffffffffffffff16021790555080600160003373ffffffffffffffffffffffffffffffffffffffff1673ffffffffffffffffffffffffffffffffffffffff168152602001908152602001600020819055506001600260003373ffffffffffffffffffffffffffffffffffffffff1673ffffffffffffffffffffffffffffffffffffffff16815260200190815260200160002060006101000a81548160ff0219169083151502179055507f70b8515497d1bc3e1ae7202216a929ffa07f703541985ee77912b7d1390dfbdb816040518082815260200191505060405180910390a18092505050919050565b600660205281600052604060002081815481101515610d1f57fe5b90600052602060002001600091509150505481565b60003373ffffffffffffffffffffffffffffffffffffffff1660008085815260200190815260200160002060009054906101000a900473ffffffffffffffffffffffffffffffffffffffff1673ffffffffffffffffffffffffffffffffffffffff16141515610e0b576040517f08c379a00000000000000000000000000000000000000000000000000000000081526004018080602001828103825260138152602001807f756e617574686f72697a65642073656e6465720000000000000000000000000081525060200191505060405180910390fd5b600782815481101515610e1a57fe5b90600052602060002090600202019050600060056000858152602001908152602001600020600084815260200190815260200160002060006101000a81548160ff021916908315150217905550610e7f6001826001015461120490919063ffffffff16565b8160010181905550505050565b606060066000838152602001908152602001600020805480602002602001604051908101604052809291908181526020018280548015610eeb57602002820191906000526020600020905b815481526020019060010190808311610ed7575b50505050509050919050565b600881815481101515610f0657fe5b9060005260206000209060030201600091509050806000018054600181600116156101000203166002900480601f016020809104026020016040519081016040528092919081815260200182805460018160011615610100020316600290048015610fb25780601f10610f8757610100808354040283529160200191610fb2565b820191906000526020600020905b815481529060010190602001808311610f9557829003601f168201915b5050505050908060010154908060020154905083565b60003373ffffffffffffffffffffffffffffffffffffffff1660008085815260200190815260200160002060009054906101000a900473ffffffffffffffffffffffffffffffffffffffff1673ffffffffffffffffffffffffffffffffffffffff1614151561109f576040517f08c379a00000000000000000000000000000000000000000000000000000000081526004018080602001828103825260138152602001807f756e617574686f72697a65642073656e6465720000000000000000000000000081525060200191505060405180910390fd5b60056000848152602001908152602001600020600083815260200190815260200160002060009054906101000a900460ff16151515611146576040517f08c379a00000000000000000000000000000000000000000000000000000000081526004018080602001828103825260168152602001807f7573657220616c726561647920666f6c6c6f77696e670000000000000000000081525060200191505060405180910390fd5b60078281548110151561115557fe5b9060005260206000209060020201905061117d6001826001015461128e90919063ffffffff16565b8160010181905550600160056000858152602001908152602001600020600084815260200190815260200160002060006101000a81548160ff02191690831515021790555060066000848152602001908152602001600020829080600181540180825580915050906001820390600052602060002001600090919290919091505550505050565b60008083831115151561127f576040517f08c379a00000000000000000000000000000000000000000000000000000000081526004018080602001828103825260078152602001807f737562206572720000000000000000000000000000000000000000000000000081525060200191505060405180910390fd5b82840390508091505092915050565b600080828401905083811015151561130e576040517f08c379a00000000000000000000000000000000000000000000000000000000081526004018080602001828103825260078152602001807f616464206572720000000000000000000000000000000000000000000000000081525060200191505060405180910390fd5b8091505092915050565b828054600181600116156101000203166002900490600052602060002090601f016020900481019282601f1061135957805160ff1916838001178555611387565b82800160010185558215611387579182015b8281111561138657825182559160200191906001019061136b565b5b50905061139491906113b2565b5090565b604080519081016040528060608152602001600081525090565b6113d491905b808211156113d05760008160009055506001016113b8565b5090565b905600a165627a7a72305820d56a9814b375554318fb9f9c28259946f8e158cf282985d586edf67f72a19c4c0029",
  "source": "pragma solidity ^0.4.24;\n\nimport \"./SafeMath.sol\";\n\n// TODO fixing following mapping for notifying all followers\n// TODO break out user and tweet into separate files\n\ncontract SolTweet {\n    using SafeMath for uint256;\n\n    event NewUser(uint userId);\n    event NewTweet(uint tweetId, uint indexed userId);\n    event LikeCountChange(uint tweetId);\n\n    mapping (uint => address) userToOwner;\n    mapping (address => uint) public ownerToUser;\n    mapping (address => bool) public ownerHasAccount;\n    mapping (uint => uint) tweetToUserId;\n    mapping (uint => bool) userHasLikedTweet;\n    mapping (uint => mapping (uint => bool)) public followingMapping;\n    mapping (uint => uint[]) public followingMappingKeys;\n\n    struct User {\n        string username;\n        uint followerCount;\n    }\n\n    struct Tweet {\n        string text;\n        uint likes;\n        uint authorId;\n    }\n\n    User[] public users;\n    Tweet[] public tweets;\n\n    function _getFollowingMappingKeys(uint _userId) public view returns (uint[] memory) {\n        return followingMappingKeys[_userId];\n    }\n\n    function _getNumberOfTweets() public view returns (uint) {\n        return tweets.length;\n    }\n\n    function _createUser(string memory _username) public returns (uint) {\n        User memory newUser;\n        newUser.username = _username;\n        newUser.followerCount = 0;\n        uint id = (users.push(newUser)).sub(1);\n        userToOwner[id] = msg.sender;\n        ownerToUser[msg.sender] = id;\n        ownerHasAccount[msg.sender] = true;\n        emit NewUser(id);\n        return id;\n    }\n\n    function _createTweet(uint _userId, string memory _tweetText) public returns (uint) {\n        require(userToOwner[_userId] == msg.sender, \"unauthorized sender\");\n        uint id = (tweets.push(Tweet(_tweetText, 0, _userId))).sub(1);\n        tweetToUserId[id] = _userId;\n        // notify followers\n\n        //look up all the users follwers and let them know about the new tweet\n        // following[];\n        emit NewTweet(id, _userId);\n        return id;\n    }\n\n    function _likeTweet(uint _userId, uint _tweetId) public {\n        require(userToOwner[_userId] == msg.sender, \"unauthorized sender\");\n        bool userLikedTweet = userHasLikedTweet[uint(keccak256(abi.encodePacked(_userId, _tweetId)))];\n        require(!userLikedTweet, \"user already liked tweet\");\n        Tweet storage myTweet = tweets[_tweetId];\n        myTweet.likes = myTweet.likes.add(1);\n        emit LikeCountChange(_tweetId);\n    }\n\n    function _follow(uint _userId, uint _userIdToFollow) public {\n        require(userToOwner[_userId] == msg.sender, \"unauthorized sender\");\n        //check that the users isn't already following\n        require(!followingMapping[_userId][_userIdToFollow], \"user already following\");\n        \n        //add the follower and increase follower count\n        // following[_userId] = _userIdToFollow;\n        User storage userToFollow = users[_userIdToFollow];\n        userToFollow.followerCount = userToFollow.followerCount.add(1);\n        followingMapping[_userId][_userIdToFollow] = true;\n        followingMappingKeys[_userId].push(_userIdToFollow);\n    }\n\n    function _unFollow(uint _userId, uint _userIdToUnFollow) public {\n        require(userToOwner[_userId] == msg.sender, \"unauthorized sender\");\n        //check that the users is already following\n        // require(following[_userId] == _userIdToUnFollow, \"sender is not following\");\n        \n        //remove the follower and decrease follower count\n        // delete following[_userId];\n        User storage userToUnFollow = users[_userIdToUnFollow];\n        followingMapping[_userId][_userIdToUnFollow] = false;\n        userToUnFollow.followerCount = userToUnFollow.followerCount.sub(1);\n    }\n}",
  "sourcePath": "/Users/wesleysmith/repos/soltweet/contracts/SolTweet.sol",
  "compiler": {
    "name": "solc",
    "version": "0.4.24+commit.e67f0147.Emscripten.clang"
  },
  "schemaVersion": "2.0.1",
  "updatedAt": "2018-12-28T19:21:44.030Z"
}